01REMESSA01COBRANCA       0034305739694       Célula IP                    356Banco Real           01600BPI                                                                                                                                                                                                                                                                                              000001
10209.235.033/0000034305739694                                00000000000110000000000150       000000000 0050121u0008   1502090000000000150356     06A13020999   0000000001501302090000000000150             00000000001500215754056000109MyString                                MyString 1111                           MySring     MyStrng MyString       RJ                                        007000002
81003430573969421u0008   MyString                                                             3                                                                                                                                                                                                                                                                                                           000003
10209.235.033/0000034305739694                                00000000000110000000000150       000000000 0050121u0007   1502090000000000150356     06A13020999   0000000001501302090000000000150             00000000001500215754056000109MyString                                MyString 1111                           MySring     MyStrng MyString       RJ                                        007000004
81003430573969421u0007   MyString                                                             3                                                                                                                                                                                                                                                                                                           000005
90000020000000000300                                                                                                                                                                                                                                                                                                                                                                                      000006
