02RETORNO01COBRANCA       0052705739694       CEL555555555555555555ULA IP SERVICOS DE INTERNET356BANCO REAL     16040901600BPI00000001                                                                                                                                                                                                                                                                                      000001
102092350330001950052705739694                                009500002                                    10216040922a33336  9500002             13050900000000050003560037001000000000000000000000000000000000000000000000000000000000000000000000000000000000000000000000000000000000000000000000   000000                                                                                          007000002
10209235033000194                                009500003                                    10216040922a33333  9500003             15050900000000050003560053101000000000000000000000000000000000000000000000000000000000000000000000000000000000000000000000000000000000000000000000   000000                                                                                          007000003
102092350330001950052705739694                    5555555555555555555555            009500004                                    10216040922a33335  9500004             02050900000000050003560037001000000000000000000000000000000000000000000000000000000000000000000000000000000000000000000000000000000000000000000000   000000                                                                                          007000004
102092350330001950052705739694                                009500005                                    10216040922a33310  9500005             07050900000000050003560037001000000000000000000000000000000000000000000000000000000000000000000000000000000000000000000000000000000000000000000000   000000                                                                                          007000005
102092350330001950052705739694                  555555555555555              009500006                                    10216040922a33337  9500006             08050900000000050003560037001000000000000000000000000000000000000000000000000000000000000000000000000000000000000000000000000000000000000000000000   000000                                                                                          007000006
10209235033000195005270                    009500001                                    106160409827495320r9500001             20030900000000450000000000001000000000000000000000000000000000000000000000000495000000000000000000000000000000000004995000000000000000000000000000   160409                                                                                          007000007
920135600000001  0000000500          0000000000000000000000                  0000000000000000000000                  0000000000000000000000                                                                                                                                                                                                                                           000008
